:100000000C949E000C94C6000C94C6000C94C60080
:100010000C94C6000C94C6000C94C6000C94C60048
:100020000C94C6000C94C6000C94C6000C94C60038
:100030000C94C6000C94C6000C94C6000C94C60028
:100040000C9432030C94C6000C9400030C94DA0256
:100050000C94C6000C94C6000C94C6000C94C60008
:100060000C94C6000C94C60007634236B79BD8A711
:100070001A39685618AEBAAB558C1D3CB7CC5763CD
:10008000BD6DEDFD753EF6177231BF000000803F7B
:1000900008000000BE922449123EABAAAA2ABECD97
:1000A000CCCC4C3E00000080BEABAAAAAA3E000009
:1000B0000000BF000000803F000000000008417801
:1000C000D3BB4387D1133D190E3CC3BD4282AD2B38
:1000D0003E68EC8276BED98FE1A93E4C80EFFFBE30
:1000E00001C4FF7F3F000000000000000008000284
:1000F00001000003040700000000000000000000F1
:100100000000250028002B0000000000240027002C
:100110002A00040404040404040402020202020289
:1001200003030303030301020408102040800102BB
:10013000040810200102040810200B0611241FBE21
:10014000CFEFD8E0DEBFCDBF11E0A0E0B1E0EAE93B
:10015000F4E102C005900D92A831B107D9F721E072
:10016000A8E1B1E001C01D92A83DB207E1F710E09F
:10017000CEE9D0E004C02197FE010E94450ACD39A6
:10018000D107C9F70E947C030C944B0A0C94000021
:10019000E9E2F1E02491E5E1F1E08491882399F02E
:1001A00090E0880F991FFC01E85FFE4FA591B49184
:1001B000FC01E250FF4F859194918FB7F894EC9138
:1001C000E22BEC938FBF0895EDEEF0E02491E9E28D
:1001D000F1E09491E5E1F1E0E491EE23C9F022230E
:1001E00039F0233001F1A8F4213019F1223029F13E
:1001F000F0E0EE0FFF1FE250FF4FA591B4912FB733
:10020000F894EC91811126C090959E239C932FBF6A
:1002100008952730A9F02830C9F0243049F72091FB
:1002200080002F7D03C0209180002F7720938000D5
:10023000DFCF24B52F7724BDDBCF24B52F7DFBCFB7
:100240002091B0002F772093B000D2CF2091B00042
:100250002F7DF9CF9E2BDACFAF92BF92CF92DF9254
:10026000EF92FF920F931F93CF93DF936C017B016B
:100270008B01040F151FEB015E01AE18BF08C017FC
:10028000D10759F06991D601ED91FC910190F0816F
:10029000E02DC6010995892B79F7C501DF91CF9132
:1002A0001F910F91FF90EF90DF90CF90BF90AF9094
:1002B0000895FC01538D448D252F30E0842F90E06C
:1002C000821B930B541710F0CF9608950197089551
:1002D000FC01918D828D981761F0A28DAE0FBF2F1A
:1002E000B11D5D968C91928D9F5F9F73928F90E070
:1002F00008958FEF9FEF0895FC01918D828D9817DF
:1003000031F0828DE80FF11D858D90E008958FEF1B
:100310009FEF0895FC01918D228D892F90E0805CE4
:100320009F4F821B91098F73992708958BE391E06A
:100330000E948A0121E0892B09F420E0822F089590
:1003400080E090E0892B29F00E94960181110C94A5
:1003500000000895FC01A48DA80FB92FB11DA35A68
:10036000BF4F2C91848D90E001968F739927848FD5
:10037000A689B7892C93A089B1898C9183708064F8
:100380008C93938D848D981306C00288F389E02D99
:1003900080818F7D80830895EF92FF920F931F934A
:1003A000CF93DF93EC0181E0888F9B8D8C8D981328
:1003B0001AC0E889F989808185FF15C09FB7F89434
:1003C000EE89FF896083E889F98980818370806480
:1003D00080839FBF81E090E0DF91CF911F910F91CB
:1003E000FF90EF900895F62E0B8D10E00F5F1F4FDA
:1003F0000F731127E02E8C8D8E110CC00FB607FCE9
:10040000FACFE889F989808185FFF5CFCE010E9476
:10041000AA01F1CFEB8DEC0FFD2FF11DE35AFF4F39
:10042000F0829FB7F8940B8FEA89FB898081806204
:10043000CFCFCF93DF93EC01888D8823B9F0AA89C1
:10044000BB89E889F9898C9185FD03C0808186FD8F
:100450000DC00FB607FCF7CF8C9185FFF2CF8081DE
:1004600085FFEDCFCE010E94AA01E9CFDF91CF91A8
:1004700008953FB7F8948091190190911A01A091C5
:100480001B01B0911C0126B5A89B05C02F3F19F098
:100490000196A11DB11D3FBFBA2FA92F982F882704
:1004A000BC01CD01620F711D811D911D42E0660FDF
:1004B000771F881F991F4A95D1F70895FC01019075
:1004C0000020E9F73197AF01481B590BBC018BE3C2
:1004D00091E00C942C018F929F92AF92BF920F9358
:1004E0001F93CF93DF93CDB7DEB7A1970FB6F894E4
:1004F000DEBF0FBECDBF19A2423008F44AE08E0124
:100500000F5D1F4F842E912CB12CA12CA5019401BD
:100510000E940F0AE62FB901CA01EA30F4F4E05D47
:10052000D801EE938D01232B242B252B79F790E016
:1005300080E0109719F0CD010E945E02A1960FB6DF
:10054000F894DEBF0FBECDBFDF91CF911F910F9109
:10055000BF90AF909F908F900895E95CE1CFCF92CC
:10056000DF92EF92FF92CF93DF936B017C016DE2FC
:100570008BE391E00E94CC01EC0166277727CB0149
:100580006C197D098E099F094AE00E946B028C0F4D
:100590009D1FDF91CF91FF90EF90DF90CF90089556
:1005A000BC01990F880B990B97FD0C94AF024AE0A0
:1005B0000C946B021F920F920FB60F9211242F937F
:1005C0003F934F935F936F937F938F939F93AF93DB
:1005D000BF93EF93FF938BE391E00E94AA01FF91F9
:1005E000EF91BF91AF919F918F917F916F915F91AB
:1005F0004F913F912F910F900FBE0F901F90189524
:100600001F920F920FB60F9211242F938F939F93E7
:10061000EF93FF93E0914B01F0914C018081E091C9
:100620005101F091520182FD1BC0908180915401D3
:100630008F5F8F7320915501821741F0E091540133
:10064000F0E0E55CFE4F958F80935401FF91EF91B0
:100650009F918F912F910F900FBE0F901F90189523
:100660008081F4CF1F920F920FB60F9211242F9317
:100670003F938F939F93AF93BF9380911D01909170
:100680001E01A0911F01B09120013091180123E0BB
:10069000230F2D3758F50196A11DB11D2093180188
:1006A00080931D0190931E01A0931F01B093200120
:1006B0008091190190911A01A0911B01B0911C0128
:1006C0000196A11DB11D8093190190931A01A09369
:1006D0001B01B0931C01BF91AF919F918F913F91EE
:1006E0002F910F900FBE0F901F90189526E8230FA3
:1006F0000296A11DB11DD2CF789484B5826084BDCD
:1007000084B5816084BD85B5826085BD85B5816015
:1007100085BD80916E00816080936E001092810093
:10072000809181008260809381008091810081604E
:10073000809381008091800081608093800080910F
:10074000B10084608093B1008091B000816080939B
:10075000B00080917A00846080937A0080917A0062
:10076000826080937A0080917A00816080937A0021
:1007700080917A00806880937A001092C100E091A5
:100780004B01F0914C0182E08083E0914701F091B0
:1007900048011082E0914901F0914A018FEC808379
:1007A00010925301E0914F01F091500186E0808357
:1007B000E0914D01F0914E01808180618083E09154
:1007C0004D01F0914E01808188608083E0914D0160
:1007D000F0914E01808180688083E0914D01F0911D
:1007E0004E0180818F7D80830E94C80084E6882E20
:1007F000912C0FEF10E090E0292E90E0392EAA24E2
:10080000AA94B12C20E420937C0080917A0080642B
:1008100080937A0080917A0086FDFCCF80917800E9
:10082000909179002091390130913A01820F931F04
:1008300090933A018093390120913701309138012A
:10084000253631050CF47AC0B4010E94FB09072E4D
:10085000000C880B990B0E94540720E030E040EA1E
:1008600050E40E94090820E030EC4FE754E40E9475
:10087000AA066B017C0120E030E04AE754E40E94C4
:1008800009082B013C01A701960160E070E080EAB5
:1008900090E40E9438069B01AC01C301B2010E94A2
:1008A000AA0625E83BEE41ED5FE30E9476089B0136
:1008B000AC0160E070E080E89FE30E94AA0620EDB2
:1008C00035EE45E259E40E9409080E941C07709326
:1008D0003601609335018AE590E00E94D00282E102
:1008E00091E00E945E0280913501909136010E9454
:1008F000D00282E191E00E945E02209133013091AA
:10090000340148E2429FC001439F900D1124B80179
:100910000E94FB09072E000C880B990B97FF0CC156
:100920000E94AF0284E191E00E945E0210923A01BF
:1009300010923901109238011092370180913501DF
:1009400090913601CAE5D0E0C81BD90BD093320193
:10095000C093310180912F0190913001853691052E
:100960000CF494C08FB7F89440911D0150911E0172
:1009700060911F01709120018FBF80912B01909198
:100980002C01BA01681B790B8091310190913201E1
:10099000689F6001699FD00C789FD00C11240D2CAA
:1009A000000CEE08FF08409027015090280160904D
:1009B000290170902A01C40CD51CE61CF71CC092BA
:1009C0002701D0922801E0922901F0922A0120917A
:1009D000250130912601821B930B0E94FB09072EF3
:1009E000000C880B990B0E9454072B013C012FB778
:1009F000F89480911D0190911E01A0911F01B0916A
:100A000020012FBF80932B0190932C01A0932D01E7
:100A1000B0932E0180913101909132019093260183
:100A200080932501C701B6010E9454072FE632E1E9
:100A300043E05CE30E9409086B017C01BE01DD0F0D
:100A4000880B990B0E9454079B01AC01C701B601AA
:100A50000E9439066B017C0126EA3BE944EC5BE32A
:100A6000C301B2010E9409089B01AC01C701B60194
:100A70000E94390660932101709322018093230123
:100A8000909324011092300110922F01C090210107
:100A9000D0902201E0902301F090240120E030E08A
:100AA000A901C701B6010E94A50687FF49C010929F
:100AB0002101109222011092230110922401109220
:100AC000340110923301C0913301D09134010E945E
:100AD000C800209709F058C080E00E94E40080918F
:100AE0003701909138010196909338018093370136
:100AF00080912F0190913001019690933001809365
:100B00002F010E9439026B017C010E9439026C198D
:100B10007D098E099F09683E734081059105A8F300
:100B20002114310409F46ECE0E949601882309F441
:100B300069CE0E94000066CE4AE00E946B02F2CEAF
:100B400020E030E04FE753E4C701B6010E940408FB
:100B500018168CF480E090E0AFE7B3E480932101B5
:100B600090932201A0932301B0932401B092340109
:100B7000A0923301A8CFC701B6010E941C07709351
:100B80003401609333019FCFCF3FD10511F481E051
:100B9000A4CFEDEEF0E08491833019F140F4813080
:100BA000B1F08230C9F0C038D1058CF795CF8730CD
:100BB00011F1883041F18430B1F78091800080627A
:100BC00080938000D0938B00C0938A0088CF84B537
:100BD000806884BDC7BD83CF84B5806284BDC8BD35
:100BE0007ECF80918000806880938000D0938900C0
:100BF000C093880074CF8091B00080688093B0006B
:100C0000C093B3006CCF8091B00080628093B0003D
:100C1000C093B40064CFEBE3F1E01382128288EE5C
:100C200093E0A0E0B0E084839583A683B78384E05B
:100C300091E09183808385EC90E09587848784ECB4
:100C400090E09787868780EC90E0918B808B81EC99
:100C500090E0938B828B82EC90E0958B848B86EC7A
:100C600090E0978B868B118E128E138E148E0895C2
:100C70005058BB27AA270E9450060C94CA070E940E
:100C8000BC0738F00E94C30720F039F49F3F19F4E5
:100C900026F40C94B9070EF4E095E7FB0C94B30727
:100CA000E92F0E94DB0758F3BA176207730784071E
:100CB000950720F079F4A6F50C94FD070EF4E09565
:100CC0000B2EBA2FA02D0B01B90190010C01CA0106
:100CD000A0011124FF27591B99F0593F50F4503EB1
:100CE00068F11A16F040A22F232F342F4427585FA3
:100CF000F3CF469537952795A795F0405395C9F7BB
:100D00007EF41F16BA0B620B730B840BBAF0915072
:100D1000A1F0FF0FBB1F661F771F881FC2F70EC011
:100D2000BA0F621F731F841F48F4879577956795E4
:100D3000B795F7959E3F08F0B0CF9395880F08F0D0
:100D40009927EE0F9795879508950E948F0708F4CD
:100D500081E008950E94BE060C94CA070E94C30752
:100D600058F00E94BC0740F029F45F3F29F00C9432
:100D7000B30751110C94FE070C94B9070E94DB07CE
:100D800068F39923B1F3552391F3951B550BBB27BA
:100D9000AA2762177307840738F09F5F5F4F220FFF
:100DA000331F441FAA1FA9F335D00E2E3AF0E0E8F6
:100DB00032D091505040E695001CCAF72BD0FE2F40
:100DC00029D0660F771F881FBB1F261737074807D4
:100DD000AB07B0E809F0BB0B802DBF01FF2793588C
:100DE0005F4F3AF09E3F510578F00C94B3070C9496
:100DF000FE075F3FE4F3983ED4F3869577956795B9
:100E0000B795F7959F5FC9F7880F911D96958795C0
:100E100097F90895E1E0660F771F881FBB1F6217DF
:100E200073078407BA0720F0621B730B840BBA0B9D
:100E3000EE1F88F7E09508950E9423076894B1118A
:100E40000C94FE0708950E94E30788F09F5798F0DE
:100E5000B92F9927B751B0F0E1F0660F771F881FBF
:100E6000991F1AF0BA95C9F714C0B13091F00E94D9
:100E7000FD07B1E008950C94FD07672F782F8827B0
:100E8000B85F39F0B93FCCF3869577956795B39500
:100E9000D9F73EF490958095709561957F4F8F4F6F
:100EA0009F4F0895E89409C097FB3EF49095809574
:100EB000709561957F4F8F4F9F4F9923A9F0F92F20
:100EC00096E9BB279395F695879577956795B7959E
:100ED000F111F8CFFAF4BB0F11F460FF1BC06F5F84
:100EE0007F4F8F4F9F4F16C0882311F096E911C096
:100EF000772321F09EE8872F762F05C0662371F0B7
:100F000096E8862F70E060E02AF09A95660F771FCA
:100F1000881FDAF7880F9695879597F90895990FA6
:100F20000008550FAA0BE0E8FEEF16161706E807B3
:100F3000F907C0F012161306E407F50798F0621BD4
:100F4000730B840B950B39F40A2661F0232B242BA9
:100F5000252B21F408950A2609F4A140A6958FEFC8
:100F6000811D811D089597F99F6780E870E060E01A
:100F700008959FEF80EC089500240A941616170632
:100F800018060906089500240A941216130614067A
:100F900005060895092E0394000C11F4882352F0DD
:100FA000BB0F40F4BF2B11F460FF04C06F5F7F4F95
:100FB0008F4F9F4F089557FD9058440F551F59F07C
:100FC0005F3F71F04795880F97FB991F61F09F3F36
:100FD00079F087950895121613061406551FF2CF5F
:100FE0004695F1DF08C0161617061806991FF1CFAF
:100FF00086957105610508940895E894BB276627D6
:101000007727CB0197F908950E948F0708F48FEF97
:1010100008950E941C080C94CA070E94BC0738F06F
:101020000E94C30720F0952311F00C94B3070C9491
:10103000B90711240C94FE070E94DB0770F3959FFB
:10104000C1F3950F50E0551F629FF001729FBB27BF
:10105000F00DB11D639FAA27F00DB11DAA1F649F5B
:101060006627B00DA11D661F829F2227B00DA11D0E
:10107000621F739FB00DA11D621F839FA00D611D94
:10108000221F749F3327A00D611D231F849F600DB5
:10109000211D822F762F6A2F11249F5750409AF0DE
:1010A000F1F088234AF0EE0FFF1FBB1F661F771F6A
:1010B000881F91505040A9F79E3F510580F00C9435
:1010C000B3070C94FE075F3FE4F3983ED4F3869594
:1010D00077956795B795F795E7959F5FC1F7FE2BD5
:1010E000880F911D9695879597F90895FA01EE0F4F
:1010F000FF1F309621053105A1F16115710561F4DD
:101100008038BFE39B0749F168949038810561F00E
:101110008038BFEF9B0741F099234AF5FF3FE10577
:101120003105210519F1E8940894E795D901AA231E
:1011300029F4AB2FBE2FF85FD0F310C0FF5F70F41F
:10114000A695E0F7F73950F019F0FF3A38F49F7799
:101150009F930DD00F9007FC9058089546F00C9483
:10116000B90760E070E080E89FE308954FE79F775C
:101170005F934F933F932F930E9471092F913F915B
:101180004F915F910E9409080C94CE0829F416F043
:101190000C94B3070C94FD070C94B9070E94E30765
:1011A000A8F39638A0F707F80F92E8942BE33AEAF1
:1011B00048EB5FE70E941F080F920F920F924DB706
:1011C0005EB70F920E94B909E8E6F0E00E940009BC
:1011D0004F915F91EF91FF91E595EE1FFF1F49F051
:1011E000FE57E0684427EE0F441FFA95E1F741955A
:1011F000550B0E9433090F9007FE0C9427090895A0
:10120000DF93CF931F930F93FF92EF92DF927B01B7
:101210008C01689406C0DA2EEF010E941C08FE01C2
:10122000E894A5912591359145915591A6F3EF014B
:101230000E945006FE019701A801DA9469F7DF9039
:10124000EF90FF900F911F91CF91DF9108959B0137
:10125000AC0160E070E080E89FE30C94AA060C9477
:10126000B3070C94ED090E94E307D8F39923C9F35F
:10127000940F511DA3F39150504094F059F08823DE
:1012800032F0660F771F881F91505040C1F79E3F84
:1012900051052CF7880F911D9695879597F908951C
:1012A0005F3FACF0983E9CF0BB278695779567959D
:1012B000B79508F4B1609395C1F7BB0F58F711F4D7
:1012C00060FFE8CF6F5F7F4F8F4F9F4FE3CF0C944E
:1012D000FE0716F00C94ED090C94B90768940C9471
:1012E000B3070E94E307A8F39923C1F3AEF3DF939A
:1012F000CF931F930F93FF92C92FDD2788232AF0E6
:101300002197660F771F881FDAF720E030E040E86A
:101310005FEB9FE3883920F0803E38F021968F778D
:101320000E943906E0E9F0E004C00E943906EDEBC6
:10133000F0E00E9400098B01BE01EC01FB2E6F570B
:1013400071097595771F880B990B0E94540728E146
:1013500032E741E35FE30E941C08AF2D9801AE0124
:10136000FF900F911F91CF91DF910E9450060C9436
:10137000CA07FA01DC01AA0FBB1F9B01AC01BF57D2
:1013800028F4222733274427507820C0B75190F4FF
:10139000AB2F0024469537952795011CA395D2F3D2
:1013A000002071F0220F331F441FB395DAF30ED0E3
:1013B0000C94380661307105A0E88A07B94630F40C
:1013C0009B01AC016627772788279078309621F01B
:1013D000208331834283538308959F3F31F091509E
:1013E00020F4879577956795B795880F911D969509
:1013F000879597F9089597FB072E16F4009407D068
:1014000077FD09D00E94310A07FC05D03EF4909583
:1014100081959F4F0895709561957F4F0895A1E242
:101420001A2EAA1BBB1BFD010DC0AA1FBB1FEE1F5E
:10143000FF1FA217B307E407F50720F0A21BB30BA9
:10144000E40BF50B661F771F881F991F1A9469F725
:1014500060957095809590959B01AC01BD01CF0181
:101460000895AA1BBB1B51E107C0AA1FBB1FA617EB
:10147000B70710F0A61BB70B881F991F5A95A9F73D
:1014800080959095BC01CD010895EE0FFF1F05904A
:0A149000F491E02D0994F894FFCFC9
:10149A0000000000CC012C01590119028A016801DF
:0814AA007C0120000D0A000086
:00000001FF
